:060000000A128A11FC2F18
:100EF200831603138801831203138801080000304C
:100F020083120313A3000130A2008630A100A03097
:100F1200A0000030A7000030A600C330A50050306A
:100F2200A4000030AB000030AA000030A90000305D
:100F3200A8000A128A1179270A128A11831203134E
:100F420027082B02031DAF2F26082A02031DAF2FED
:100F520025082902031DAF2F240828020318B22FE7
:100F6200B32FB52F0814B62F08100130A807003090
:100F720003180130A907003003180130AA07003016
:100F820003180130AB070130F0000030F1000030EF
:100F9200F2000030F3002008F00721080318210FA7
:100FA200D32FD42FF10722080318220FD92FDA2FBB
:100FB200F20723080318230AF3072B087306031DFD
:100FC200EC2F2A087206031DEC2F29087106031D57
:100FD200EC2F28087006031DEF2FF02F9F2F0030F3
:100FE200AB000030AA000030A9000030A8009F2FFB
:0E0FF2000A128A11002883010A128A11802F28
:02400E00FB3F76
:00000001FF
